:020000020000FC
:1000000001C04DC00FEF07BB0FEF04BB00E005BB05
:100010000BEF01BB04E002BB02E005BF00E40BBF35
:1000200031E040E050E060E000C00FE50DBF04E0CB
:100030000EBF78940ED0A0E6B0E0C8E6D0E0E0E7CE
:10004000F0E028E04D91599161910AD02A95D1F7BD
:10005000F1CF02E019E01A95F1F70A95E1F708955A
:100060000F934F935F936F9318E100E008BB660F07
:10007000441F551F30F401E008BB000000000000E1
:1000800005C001E008BB000000E008BB1A9569F755
:1000900000E008BB6F915F914F910F910895D9DFF8
:1000A000A0E6B0E0C8E6D0E0E0E7F0E0313029F4C7
:1000B0004FEF50E060E032E04EC0323029F44FEFB5
:1000C0005FE760E033E047C0333029F44FEF5FEF84
:1000D00060E034E040C0343029F440E05FEF60E09D
:1000E00035E039C0353029F440E050E06FEF36E0BC
:1000F00032C0363029F44BE450E06FEF37E02BC0CC
:10010000373029F44FE850E06FEF38E024C0383042
:1001100029F44FEF5FEF6FEF39E01DC04FEF50E074
:1001200060E003E04D93599361930A95D9F740E05D
:100130005FEF60E003E04D93599361930A95D9F71F
:1001400040E050E06FEF02E04D93599361930A95C0
:10015000D9F731E06ACF08E04D93599361930A953E
:04016000D9F763CF99
:00000001FF
